:020000040800F2
:10000000E832002099010008451600084512000852
:1000100011150008350C00080D2000080000000034
:1000200000000000000000000000000001010008C6
:10003000030E00080000000045010008271C00080E
:10004000B3010008B3010008B3010008B3010008C0
:10005000B3010008B3010008B3010008B3010008B0
:10006000B3010008B3010008B3010008F50C000853
:10007000B3010008B3010008B3010008B301000890
:10008000B3010008B3010008B3010008B301000880
:10009000B3010008B3010008B3010008E10E000835
:1000A000B3010008B3010008B3010008B301000860
:1000B0002D1D0008B3010008B3010008B3010008BA
:1000C000B3010008B3010008B3010008B301000840
:1000D000B3010008B3010008B3010008B301000830
:1000E000B3010008B3010008B3010008DFF80CD029
:1000F00000F0DAFA004800475D290008E8320020E5
:10010000224B19680868B0E8F00F80F30988BFF344
:100110006F8F4FF0000080F311884EF00D0E704786
:100120000000000006480068006880F3088862B696
:1001300061B6BFF34F8FBFF36F8F00DF00BF00BF0B
:1001400008ED00E0EFF30980BFF36F8F0F4B1A68E3
:1001500020E9F00F106008B54FF0BF0080F3118860
:10016000BFF34F8FBFF36F8F04F06AFA4FF00000B8
:1001700080F31188BDE8084019680868B0E8F00FFE
:1001800080F30988BFF36F8F704700BF68000020BD
:10019000EFF3058070470000064880470648004797
:1001A000FEE7FEE7FEE7FEE7FEE7FEE7FEE7FEE727
:1001B000FEE7FEE73D1C0008ED00000840EA0103F1
:1001C0009B0703D009E008C9121F08C0042AFAD20D
:1001D00003E011F8013B00F8013B521EF9D27047D1
:1001E000D2B201E000F8012B491EFBD27047002279
:1001F000F6E710B513460A4604461946FFF7F0FF26
:10020000204610BDC10F80EAE0700844CA0796235B
:10021000002100F063B800F0004230F000400AD046
:10022000C10D01F56071C0F3160042EA0151C20828
:1002300040071143704700200146704730B50B4618
:10024000014600202022012409E021FA02F59D4206
:1002500005D303FA02F5491B04FA02F52844151EDA
:10026000A2F10102F1DC30BD2DE9F05F054600206E
:1002700092469B4688460646814640241BE0284617
:1002800041464746224600F030FA53465A46C01AC5
:10029000914110D311461846224600F017FA2D1A44
:1002A00067EB01084F4622460120002100F00EFABC
:1002B00017EB00094E41201EA4F10104DFDC484683
:1002C00031462A464346BDE8F09F0029A8BF704743
:1002D000401C490008BF20F00100704710B4B0FA7C
:1002E00080FC00FA0CF050EA010404BF10BC704717
:1002F00049B1CCF1200421FA04F411FA0CF118BF31
:10030000012121430843A3EB0C01CB1D4FEA0061FF
:100310004FEA102042BF002010BC704700EBC350D2
:1003200010440029A4BF10BC7047401C490008BFFE
:1003300020F0010010BC70472DE9FE4F804681EA95
:100340000300C00F0C46009021F0004123F000454F
:10035000B8EB0200A94105D24046214690461C4612
:100360000B46024623F00040104347D0270DC7F349
:100370000A00C3F30A510290401A019040286BDA38
:10038000C3F3130040F4801B0098924620B1002371
:10039000D2EB030A63EB0B0B01985946C0F1400204
:1003A000504600F093F906460D4650465946019ACC
:1003B00000F0ABF910EB08006141002487EA11520C
:1003C00084EAE7731A4340D0009A62B3019A012A83
:1003D0004FEA075215DC001B61EB02014FF00042AF
:1003E00002EA0752CDE90042001C41F58011324675
:1003F0002B4600F0ABF903B0BDE8F08F4046214634
:10040000F9E7001B61EB0201001C41F580130018A5
:100410005B412018A2F5001747EB030140EAD570B5
:10042000B6196D4111E06D084FEA360645EAC07510
:100430004FEA0752001B61EB0201001C41F58011DD
:1004400049084FEA30000019514132462B4603B0AB
:10045000BDE8F04F00F06BB9009801224000002386
:10046000D0EB020263EBE073009821464FEAE074A0
:10047000B8EB000061EB0401E9E783F000435BE7C0
:1004800081F0004158E72DE9FE4F81EA030404F0B2
:10049000004421F0004100944FF0000B23F0004392
:1004A00050EA01045ED052EA03045BD0C3F30A545D
:1004B000C1F30A552C44A4F2F3340194A0FB025476
:1004C000C1F3130141F48011C3F3130343F4801308
:1004D00001FB024400FB034E840A970A44EA81545C
:1004E00047EA8357A4FB076802958D0A05FB078539
:1004F0004FEA932C04FB0C542705029D4FEA065843
:1005000047EA1637B5EB08056EEB070C870E920E1F
:1005100047EA811742EA8312A7FB0201B6EB0B01FF
:1005200064EB00042B0D43EA0C335E1844EB1C50C3
:10053000DA465146E7FB0201C5F313044FEA0B33D9
:1005400043EA14534FEA0432019C43EA0603A4F140
:100550000C040294009CCDE900B400F0F7F803B05D
:10056000BDE8F08F00200146F9E72DE9F04D81EA62
:10057000030404F0004B21F0004514464FF0000A3C
:1005800023F0004150EA050220D054EA01021DD0B8
:10059000C5F30A570246C5F31303C1F31300C1F3B1
:1005A0000A5640F4801543F48013A7EB0608101B8D
:1005B000D64608F2FD3873EB050002D308F10108B6
:1005C00001E092185B41B8F1000F03DA0020014608
:1005D000BDE8F08D00204FF48011064684460EE001
:1005E000171B73EB050705D3121B63EB05030643CB
:1005F0004CEA010C49084FEA300092185B4150EA7E
:100600000107EDD152EA030012D082EA040083EA26
:100610000501084305D0101BAB4106D2012200237F
:1006200006E000224FF0004302E06FF00102531099
:100630001AEB06004CEB085110EB0A0041EB0B01E2
:10064000BDE8F04D00F073B8C1F30A52C1F31301D5
:1006500040F2FF3341F480119A4202DA0020014651
:10066000704740F233439A42A2F2334202DC5242D4
:1006700000F03BB800F02AB830B5041E71F1000458
:1006800004DB4FF00044404264EB0101141E73F19F
:10069000000405DB1C464FF00043524263EB0403A9
:1006A000994208BF904230BD064C074D06E0E06815
:1006B00040F0010394E8070098471034AC42F6D3A9
:1006C000FFF718FDD0700008F0700008202A04DB46
:1006D000203A00FA02F1002070479140C2F1200355
:1006E00020FA03F3194390407047202A04DB203A94
:1006F00021FA02F00021704721FA02F3D040C2F142
:1007000020029140084319467047202A06DBCB1788
:10071000203A41FA02F043EAE07306E041FA02F3BC
:10072000D040C2F12002914008431946704710B5ED
:10073000141E73F1000408DA401C41F10001921804
:100740005B411A4301D120F0010010BD2DE9F04DAD
:1007500092469B4611B1B1FA81F202E0B0FA80F202
:1007600020329046FFF7B2FF04460F4640EA0A00E7
:1007700041EA0B0153465A46084313D0114653EA47
:10078000010019D0C8F140025046FFF7AEFF054600
:100790000E46504659464246FFF798FF084305D09B
:1007A000012004E020463946BDE8F08D00200543D5
:1007B00046EAE0762C4337430A986305E40AA0EB47
:1007C00008000022FD0A44EA47540A3002D50020FE
:1007D0000146E9E7010510196941DDE908450019FD
:1007E0006941BDE8F04DA2E737498A8840F26C7054
:1007F000824298BF70478B8840F694029A4281BF2C
:10080000CB888342C888824298BF70472F48002215
:1008100043781BB942608260C260026110B4B1F8D3
:1008200000C04FF47A740CFB04FC446804EB1C3CDD
:100830000CF57A7CC0F804C0B1F802C04FF4FA7429
:100840000CFB04FC846804EB1C3C0CF57A7CC0F8BF
:1008500008C0B1F804C04FF47A740CFB04FCC468FF
:1008600004EB1C3C0CF57A7CC0F80CC0C9884FF432
:100870007A7C01FB0CF1D0F810C00CEB113101F5C2
:100880007A710161591CC9B241703C293CBF10BC4E
:100890007047436893FBF1FC0D4BA3F800C0D0F800
:1008A00008C09CFBF1FCA3F802C0D0F80CC09CFB74
:1008B000F1FCA3F804C0D0F810C09CFBF1F1D98082
:1008C0008270427010BC704734000020200000206D
:1008D0003C0000200029816814BF41F0010121F093
:1008E0000101816070470029816814BF41F4807163
:1008F00021F48071816070470029816814BF41F440
:10090000801121F4801181607047014600208968C0
:1009100011F0040F18BF01207047014600208968BC
:1009200011F0080F18BF012070470000426891F8CD
:1009300004C022F4807222F470220B6842EA0C2276
:100940001A43426082680B4B1A40D1E902C343EA62
:100950000C0391F805C042EA4C021A438260C26A55
:10096000097C22F47002491EC9B242EA0151C162F7
:1009700070470000FDF7F1FF70B5012192B0480209
:1009800000F06EFF0121042000F06AFF01210846FB
:1009900000F04EFF0F20ADF8400003208DF842001C
:1009A00000248DF8434010A93A4800F0ADFB4FF405
:1009B000404000F033FF01208DF830000B948DF89B
:1009C00031404FF42020CDE90D04334D04268DF83D
:1009D0003C600BA92846FFF7A9FFCDE902462F4846
:1009E000019028150A9407908020059020200890F7
:1009F0002B4800908015049406900001294C099022
:100A00006946204600F0D4F901220221204600F078
:100A1000C7F94FF0E021E014C1F8000101212046A0
:100A200000F0A4F901212846FFF754FF01212846D0
:100A3000FFF759FF072301220021284600F034F870
:100A4000072302220121284600F02EF80723032263
:100A50000221284600F028F8072304220321284613
:100A600000F022F8284600F068F82C462046FFF7F0
:100A700054FF0028FAD1204600F064F82046FFF722
:100A800044FF0028FAD101212046FFF735FF12B0BC
:100A900070BD000000080140002401403400002027
:100AA0004C2401400800024030B4072409290DD924
:100AB000C568A1F10A0C0CEB4C0C04FA0CF425EA05
:100AC000040403FA0CF32343C3600AE0056901EB55
:100AD000410C04FA0CF425EA040403FA0CF3234352
:100AE00003611F23072A0CD2D0F834C0521E02EB38
:100AF000820293402CEA030391401943416330BCC6
:100B000070470D2A0CD2D0F830C0D21F02EB8202FF
:100B100093402CEA030391401943016330BC7047B2
:100B2000D0F82CC00D3A02EB820293402CEA03036A
:100B300091401943C16230BC7047816841F008019F
:100B400081607047816841F00401816070470FB493
:100B500081B00020ADF80000BDF80410BDF80820F9
:100B600040F2DC50914207D9BDF80410BDF80C20CA
:100B70008A4288BFADF80400BDF80410BDF8082013
:100B8000914207D2BDF80810BDF80420411A114463
:100B9000ADF80410BDF80410BDF80C20914207D93F
:100BA000BDF80810401ABDF80410081AADF804008A
:100BB000BDF80400BDF81010884294BFBDF81000C5
:100BC000BDF80400ADF80400BDF80400BDF8141031
:100BD00088422CBFBDF81400BDF80400ADF8040035
:100BE000BDF80400ADF80000BDF8000005B0704786
:100BF00000B583B003F0B2FB09490320CDE9000141
:100C000000234FF4807207A1084804F057F8084801
:100C1000006803F043FC03B05DF804EB03F0ACBBE9
:100C2000600000205461736B31000000CD1F00088C
:100C30005C000020FEE7000010B58EB01D4802F0F9
:100C4000B3F91D491B4802F0CCFA1A4802F0C6F964
:100C50001AA1684601F0DCF96B4608221E211548EE
:100C600002F066FA134802F092FA174C2078002836
:100C7000FCD0207860B115A1684601F0C9F96B4637
:100C8000102200210B4802F053FA0A4802F07FFAC2
:100C900020780028FCD112A1684601F0B9F96B4612
:100CA00018220021034802F043FA024802F06FFACA
:100CB0000EB010BD54010020A851000843616C69BA
:100CC00062726174696F6E00220000205374617259
:100CD000742043616C6962726174696F6E00000018
:100CE00043616C6962726174696F6E2046696E69F6
:100CF0007368000010B5022000F042F8012818BF08
:100D000010BD1148C188A0F11404C1F58051062915
:100D100009DA4088C0F58050062804DA0120A07066
:100D20000A4802F05BF9A078002818BFFFF75CFDC5
:100D300000F0A8F900F0F6FC054800F031FEBDE82F
:100D40001040022000F006B83400002054010020BA
:100D5000F400002010F0805F19BF024908600249CA
:100D60004860704704040240000002400029016806
:100D700012BF41F001014FF6FE7211400160704751
:100D8000002110F0805F14BF034A044A1268024237
:100D900018BF0121084670470004024000000240CD
:100DA000002A026814BF114322EA01010160704762
:100DB00010B40268D1F820C08B686FF30E1243EABA
:100DC0000C03D1E904C44CEA040C43EA0C03D1F847
:100DD00018C043EA0C03D1F81CC043EA0C03D1F855
:100DE00024C043EA0C03D1F828C043EA0C031A4399
:100DF0000260CA6842600A6882604968C16010BCCB
:100E00007047704710B5042000F002FF0C480E49EF
:100E100002680C48B2FBF0F3B2FBF0F04FF47A72C8
:100E2000424301200B6048604FF0E020016941F02F
:100E3000020101614261016941F00101016110BDDE
:100E40000000002040420F001400002070B504464E
:100E500003F0F4FF144D01280BD06868844224BFCE
:100E6000B4FBF0F003F0FEFA6868B4FBF0F100FBAD
:100E700011444FF47A704FF0E02C6043DCF81440DA
:100E80000022296800FB01F3DCF81810DCF81800D8
:100E90008842FBD026BF251A2944091A0A44014674
:100EA0009A42F3D370BD00001400002030B44FF01C
:100EB000E02400216369094A126800FB02FCA26970
:100EC000A0699042FCD026BF1D1A2A44121A114470
:100ED00002466145F4D330BC704700001400002086
:100EE00070B5202000F076F8002808BF70BD002003
:100EF00000F088FB072000F0BBFD304C607060788C
:100F000010F0200F21D0002000F07CFB0F212020CA
:100F100000F00CFE7E21272000F008FE012000F0EA
:100F200071FB2748007800284FF0080002D000F03D
:100F3000FBF901E000F0FEF92021272000F0F6FD8A
:100F4000FF21E12000F0F2FD32E0607810F0400F68
:100F500014D01C4D002000F055FB202229466120B2
:100F600000F038FDFF21E22000F0E0FD012000F05C
:100F700049FB012020704021272017E0607810F005
:100F8000100F15D0002000F03DFB0F21202000F0B5
:100F9000CDFD7E21272000F0C9FD012000F032FBAD
:100FA0001021272000F0C2FDFF21E12000F0BEFD4E
:100FB000BDE87040202000F007B800004C00002081
:100FC0001C0000200001002001490860704700005B
:100FD00014040140054A00211268054B02401B68B9
:100FE00003421CBF002A012108467047000401404B
:100FF00014040140837921490268002B34D00B6826
:1010000023EA02020A60091D0A6803689A430A601B
:10101000017901F1804101F582310A6803681A43C0
:101020000A60174B19680268914319601A1D11680C
:10103000D0F800C021EA0C0111604179102908D0D4
:1010400001F1804101F582310A68006810430860AF
:1010500070471968D0F800C041EA0C0119601168A6
:101060000068084310607047007900F1804000F587
:101070008230016891430160704700000004014024
:101080000804014070B5114D0024A87B01280BD144
:101090000F484088C0F58050062804DA0D480178D2
:1010A00081F001010170AC73A878012818BF70BDF0
:1010B000094801F093FF09480178491CC9B2017041
:1010C000022908BF0470AC7070BD0000DC00002075
:1010D000340000201C000020540100205800002093
:1010E0008A0721F0030101F1804101F58031120FDF
:1010F0000F23D1F808C093402CEA03038B608B6860
:1011000090401843886070472DE9F001CB780022A9
:1011100003F00F0C13F0100F1CBF8B7843EA0C0C7C
:101120000B784FF00F0613F0FF0F4FF0010518BFBB
:10113000046819D00F8805FA02F31F409F420FD1AF
:10114000970006FA07F824EA08040CFA07F73C436C
:10115000CF78282F08BF436102D0482F08BF036112
:10116000521C082AE6D304600A88FF2A87BF446815
:101170000022BDE8F001704702F108030F8805FA6C
:1011800003F31F409F420FD1970006FA07F824EAA5
:1011900008040CFA07F73C43CF78282F08BF4361B7
:1011A000CF78482F08BF0361521C082AE4D344605B
:1011B000BDE8F0017047000070B4194A10F0004F0C
:1011C00014BFD3695368C0F303444FF4401C3CEA96
:1011D00000054FEA505C4FEA0C1C86B206FA0CFC84
:1011E00016D010F4801F08BF23EA0C0303D0032598
:1011F00005FA04F4A34343F07063002918BF4CEAD6
:10120000030310F0004F14BFD361536070BC7047EC
:10121000546823F0706324F070645460EDE70000BC
:10122000000001400246002092680A4218BF0120D7
:1012300070474161704701617047002A14BF016126
:1012400041617047FEE7000008B50121082000F069
:1012500007FB4FF44070ADF8000010208DF803003C
:1012600003208DF8020069460148FFF74DFF08BDD5
:10127000000C014000B5012185B0084600F0E4FAF9
:101280000121082000F0ECFA48208DF80F004FF4FF
:101290007040ADF80C0003208DF80E0003A9114832
:1012A000FFF732FF4FF0804000F0C6FD0020ADF8A0
:1012B0000600ADF8020042F20F70ADF804004720BE
:1012C000ADF8000069464FF0804000F031FE012289
:1012D0001146900700F0A8FD0121880700F090FD5D
:1012E00005B000BD0008014038B50121092000F01B
:1012F000B7FA01210A48FFF75FFF10208DF80300BD
:10130000F820ADF800000320064C8DF80200694675
:101310002046FFF7F9FEF8212046FFF78CFF38BD85
:1013200000023000000C014001460148FFF781BF78
:10133000000C014002490A685040086070470000F4
:101340000C0C014010B550A308222821504801F090
:10135000EFFE50480178012918BF10BD002101702F
:1013600000F08AFA4CA14E4800F052FE4C4B162277
:101370000021474801F0DCFE4A4C4B49207B012804
:10138000434829D001F02DFFCA23192228214048C3
:1013900001F02DFE45493E4801F023FFA068FEF70D
:1013A0003AFF02460B4642A13D4800F031FE3C4B5D
:1013B00016224621364801F0BBFEB4F90620002A69
:1013C00013DD3EA1364800F023FE354B2C220021D0
:1013D0002F4801F0ADFE13E001F003FFCB231922EB
:1013E00028212B4801F003FED4E7524236A12C48B5
:1013F00000F00EFE2A4B2C220021254801F098FE19
:10140000B4F90220002A0ADD32A1254800F000FECE
:10141000234B2C2246211E4801F08AFE0AE052424C
:101420002FA11F4800F0F4FD1D4B2C224621184827
:1014300001F07EFEB4F90420002A0ADD2BA1184831
:1014400000F0E6FD164B3A220021114801F070FE33
:101450000AE0524228A1124800F0DAFD104B3A226D
:1014600000210B4801F064FE228826A10C4800F000
:10147000CFFD0B4B3A224621054801F059FEBDE84D
:101480001040034801F083BE585843484F4E470070
:10149000540100204C00002053746174653A000030
:1014A00020010020D82E002078590008A8510008FB
:1014B0004261743A252E3266000000005069746360
:1014C000683A25303364000050697463683A2D250A
:1014D000303364005961773A2530336400000000EE
:1014E0005961773A2D25303364000000526F6C6CDF
:1014F0003A25303364000000526F6C6C3A2D253071
:10150000336400005468723A2530346400000000EF
:10151000FEE7000070B584B001210D2000F0A0F9B5
:1015200010258DF803504FF4C070ADF800001B4E2D
:1015300003248DF8024069463046FFF7E5FD482058
:101540008DF803006020ADF800008DF80240694678
:101550003046FFF7D9FD8DF80750ADF804408DF8FF
:10156000064001A90E48FFF7CFFD05210020FFF737
:10157000B7FD2020029001208DF80E0000208DF88C
:101580000C000C208DF80D0002A8FFF733FD4FF082
:10159000E021E804C1F8000104B070BD000801407A
:1015A000000C01402DE9F0470025DFF85090DFF8EE
:1015B000508007462C464FF0800A00BF2AFA04F6F6
:1015C00006EA070280214846FFF737FE012211464E
:1015D0004046FFF732FE40214846FFF723FE012830
:1015E00008BF3543002201214046FFF726FE601C5C
:1015F000C4B2082CE2D32846BDE8F08700080140B9
:10160000000C014002464FF480710148FFF715BEFF
:1016100000080140024602210148FFF70EBE00000B
:10162000000C0140024620210148FFF706BE0000E1
:1016300000080140024601210148FFF7FEBD0000FD
:10164000000C01407047000010B4C27801784FF0E0
:101650000F0C012322B3184A126801F1E02102F4B1
:10166000E062C2F5E062120AC2F104042CFA02F24E
:1016700090F801C00CFA04FC8478224042EA0C0283
:10168000120181F80024007800F01F0103FA01F133
:101690004009800000F1E020C0F8001110BC704744
:1016A00001F01F0003FA00F04909890001F1E0216F
:1016B000C1F8800110BC70470CED00E0034940F018
:1016C000FD7040F080600860704700000CED00E0A5
:1016D00038B54FF4A060FFF7F1FF17208DF8000038
:1016E00000208DF801008DF8020001248DF80340E0
:1016F0006846FFF7A9FF0B208DF800008DF8014028
:101700008DF802406846FFF79FFF1C208DF800000F
:1017100002208DF801008DF802406846FFF794FF23
:1017200038BD0000F8B53A4E3088A6F10805298882
:101730004FF47A725143C0EB113005F1100400F6FA
:10174000C410208040F26C770097208840F24C4310
:1017500040F2FA5240F2BE51FFF7F9F92080688852
:101760004FF47A71C0F580504843C11700EB115017
:10177000000B6080B088A9884FF47A725143C0EBA7
:10178000113000F6C410A0800097A08840F24C43AE
:1017900040F2FA5240F2BE51FFF7D9F9A080F0882A
:1017A000E9884FF47A725143C0EB113000F6C4104F
:1017B000E0800097E08840F24C4340F2FA5240F259
:1017C000BE51FFF7C4F9E080A4F124010878C828CD
:1017D0008CBF0020401C08700E48A822027022789E
:1017E000427062788270A278C270E27802712279C7
:1017F000427162798271A279C271E2790272064AFB
:101800001278427209788172B821C172F8BD000065
:101810003C000020F40000201C00002003494A681E
:1018200022F440421043486070470000001002401C
:10183000044A0029516914BF084321EA000050619D
:101840007047000000100240044A0029D16914BF0B
:10185000084321EA0000D0617047000000100240F8
:10186000044A0029916914BF084321EA00009061ED
:10187000704700000010024020480178FF2918BF7F
:1018800070474178002918BF012110B51C4C217305
:10189000418849BA218001794279090209B211438C
:1018A00041F27B425143CA14A2EBE171618081791C
:1018B000C279090209B2114341F27B425143CA1471
:1018C000A2EBE171E180017A427A090209B2114387
:1018D00041F27B425143CA14A2EBE171A180017B2A
:1018E000407B090209B2084341F27B414843C114DD
:1018F000A1EBE070FEF786FCA06010BD00010020A7
:10190000D82E002010B5FFF705FE0020FFF792FE4D
:101910000120FFF77FFE0020FFF774FE0120FFF794
:1019200081FE0020FFF76EFE0321232000F0FEF869
:1019300005221949302000F0B3F8052217492A2062
:1019400000F0AEF81A21242000F0F0F80121212047
:1019500000F0ECF80121222000F0E8F827212620F1
:1019600000F0E4F81E21252000F0E0F820213120CD
:1019700000F0DCF80F21202000F0D8F8FF21E22051
:1019800000F0D4F8FF21272000F0D0F8BDE8104087
:101990000120FFF737BE00004E000020530000205A
:1019A00010B504460020FFF72DFE20222146A0207E
:1019B00000F076F80E21202000F0B8F87E212720D4
:1019C00000F0B4F80120FFF71DFEBDE81040012033
:1019D000FFF73CBA2DE9F74F234F044682B00022AF
:1019E00002213846FFF729FC2046FFF7DBFD009077
:1019F00004980025002884BFDFF870804FF080092C
:101A000029D900BF4FF0000B5E465C4629FA04FA64
:101A10000AEA0B0280214046FFF70FFC0122114623
:101A20003846FFF70AFC40214046FFF7FBFB012840
:101A300008BF4AEA0606002201213846FFF7FDFBEF
:101A4000601CC4B2082CE1D303984655681CC5B28B
:101A500004988542D6D3012202213846FFF7EDFBD8
:101A6000009805B0BDE8F08F000C0140000801406F
:101A700070B50A4C0546002202212046FFF7DDFB27
:101A80002846FFF78FFD0020FFF78CFD0546012259
:101A900002212046FFF7D1FB284670BD000C014013
:101AA0002DE9F84F1F4D93460F46044600220221B0
:101AB0002846FFF7C2FB2046FFF774FD0026009082
:101AC000BBF1000F84BFDFF860804FF0800921D99F
:101AD00017F801AB5FF0000429FA04F000EA0A02EB
:101AE00080214046FFF7A9FB012211462846FFF757
:101AF000A4FB40214046FFF795FB00220121284628
:101B0000FFF79BFB601CC4B2082CE5D3701CC6B267
:101B10005E45DDD3012202212846FFF78EFB0098A7
:101B2000BDE8F88F000C01400008014070B50B4C77
:101B30000D460646002202212046FFF77EFB304676
:101B4000FFF730FD06462846FFF72CFD0122022153
:101B50002046FFF772FB304670BD0000000C0140CC
:101B600010B5194C8AB0228818A1684600F050FAC6
:101B70006B4610220021194801F0DAFA628818A198
:101B8000684600F045FA6B4618220021134801F020
:101B9000CFFAA28816A1684600F03AFA6B462022D6
:101BA00000210E4801F0C4FAE28815A1684600F051
:101BB0002FFA6B4628220021084801F0B9FA07489D
:101BC00001F0E5FA0AB010BD440000204144435F33
:101BD00056616C7565303A2530346400540100203C
:101BE0004144435F56616C7565313A253034640079
:101BF0004144435F56616C7565323A253034640068
:101C00004144435F56616C7565333A253034640056
:101C10004FF0E021042808690CBF40F0040020F0D8
:101C200004000861704710B503F008F9012808BFE7
:101C300010BDBDE8104002F045BD0000374882B03D
:101C4000016841F0010101604168354A114041607D
:101C5000016821F4102121F080710160016821F4F4
:101C600080210160416821F4FE0141604FF41F01B1
:101C70008160002201920092016841F4803101608C
:101C8000016801F4003100910199491C019100990A
:101C900019B90199B1F5A06FF2D1016811F4003FB3
:101CA00008BF009233D0012100911E490A6842F01A
:101CB00010020A600A6822F003020A600A6842F011
:101CC00002020A604168416041684160416841F434
:101CD00080614160416821F47C114160416841F4B8
:101CE000E8114160016841F080710160016811F004
:101CF000007FFBD0416821F003014160416841F061
:101D000002014160416801F00C010829FAD106493D
:101D10004FF00060086002B0704700000010024001
:101D20000000FFF80020024008ED00E070B501213E
:101D3000880700F06EF8012818BF70BD01218807E0
:101D400000F05BF8264D4FF480512846FFF76AFA01
:101D5000244C691420702846FFF764FAA0714FF4F0
:101D600080412846FFF75EFA20734FF40041284671
:101D7000FFF758FA0021A07402250B464FF0010C22
:101D800001EB410204EB4200467826B1012E0AD055
:101D9000022E10D016E014F81220002A04BF80F89A
:101DA00001C043710EE014F81220002A08BF4570EC
:101DB00008D0437006E014F81220012A06D04279B8
:101DC000521C4271491C0429DADB70BD4279462A53
:101DD00088BF80F803C038BF80F802C0E9D1EEE7C1
:101DE000000C0140DC0000200029018814BF41F0F4
:101DF000800121F0800101807047C9430182704752
:101E00000029018814BF41F0010121F00101018086
:101E10007047038A002280890B4200EA01001CBF40
:101E20000028012210467047002A828914BF1143FE
:101E300022EA010181817047018921F007010181B6
:101E4000704730B4028C22F480520284048C828861
:101E5000838B0D8823F4E64C4FF6FF7303EA0525C8
:101E600045EA0C0C0D8924F4005403EA05352C4393
:101E70004D8803EA05352C43A0F18045B5F596352C
:101E80001CBFA0F18045B5F59A3505D18D8922F4A6
:101E9000804203EA85131A438280A0F81CC0C988D7
:101EA000A0F84010048430BC7047828B4FF6FF735B
:101EB00022F4006203EA012111438183704700008C
:101EC00070B588B042F20F7641F2883501210420C6
:101ED000FFF7BAFC0024ADF8164040F2CF20ADF871
:101EE0001460ADF81000114EADF8124004A9304650
:101EF00000F01EF86020ADF800000120ADF80200EF
:101F0000ADF80840ADF8065069463046FFF799FF36
:101F100001213046FFF768FF08213046FFF7C5FF73
:101F200001213046FFF76CFF08B070BD000800408B
:101F300010B40288234BDFF890C0984218BF604568
:101F400011D0B0F1804F1CBFA0F18044B4F5806483
:101F500009D0A0F18044B4F500641CBFA0F1804416
:101F6000B4F5406403D14C8822F070022243A0F102
:101F70008044B4F580541CBFA0F18044B4F5A05453
:101F800003D0CC8822F44072224302808A88828562
:101F90000A880285984218BF60450DD0A0F18042A2
:101FA000B2F5A0321FBFA0F18042B2F5A232A0F17B
:101FB0008042B2F5A43201D1097A018601218182E1
:101FC00010BC7047002C0140003401400C4800F068
:101FD000EBFF0C490A4801F004F9094800F0FEFF44
:101FE000FEF72AFE064800F0F9FF074C207820B1E2
:101FF000012808BFFFF7B4FDF8E7FFF7A3F9F5E7FD
:1020000054010020A851000858000020FEE70000FD
:102010000FB4084B10B504A902AA039800F0DEF82B
:10202000044602A9002000F070FC204610BC5DF8B8
:1020300014FB00000B29000802E008C8121F08C1A9
:10204000002AFAD170477047002001E001C1121F39
:10205000002AFBD1704700002DE9FF5F82B000210C
:10206000DDE90430020DDDF840B0034318D044F63A
:102070001050A2F2FF3242431514119801281FD0CC
:10208000A5EB0B00401C5FEA000A4FF000064E4F24
:10209000DFF83891B046504615D5CAF1000413E078
:1020A000119801244AA3012801D16FEA0B0102987B
:1020B000119AC0E90031C0E9024206B0BDE8F09FC4
:1020C000CBF10000DFE704460021404A491842EB0B
:1020D0000450CDE9001012E0E00707D032463B463D
:1020E00040464946FEF7CFF98046894632463B4690
:1020F00010461946FEF7C7F906460F466410002C35
:10210000EAD1DDE90401DDE90023BAF1000F06DAC6
:10211000FEF7B9F942464B46FEF7B5F905E0FEF782
:1021200024FA42464B46FEF720FA04460E460022A9
:10213000284BFEF7A1FA03D84FF0FF30014607E025
:102140000022254B20463146FEF7F6F8FEF77CFAD2
:10215000102409E0002C0ADB0A220023FEF784F891
:10216000039B30321A55641E50EA0102F2D1641CFE
:10217000039AC4F111031444119A012A03D00122D5
:1021800008430DD10AE0084304D000204FF0110BA2
:10219000119072E7A3EB0B056D1E0DE05B4504DDAE
:1021A0004FF0000205F1010504E003DA4FF00002F0
:1021B000A5F10105002AECD002981199C0E902317D
:1021C000C0E9004579E70000000014400000F03F3E
:1021D000300000000000F0430000E03F2DE9FF4F19
:1021E00095B09B468946064600250FE2252877D103
:1021F00000242746F84A0121059400E0044316F81C
:10220000013F203B01FA03F01042F7D130782A2831
:1022100011D06FF02F033078A0F13002092A16D8C0
:10222000059A44F0020402EB820203EB42021044DE
:10223000761C0590EFE759F8042B0592002A03DA83
:10224000504244F40054059044F00204761C307867
:102250002E2816D116F8010F44F004042A280DD0B8
:102260006FF02F023078A0F13003092B09D807EB6B
:10227000870302EB4303C718761CF3E759F8047B86
:10228000761C30786C280FD006DC4C2817D06828D4
:102290000DD06A2814D104E0742810D07A280FD108
:1022A0000DE044F400140AE044F4801401E044F426
:1022B00040147278824202D104F58014761C761C98
:1022C000307866280BD013DC582877D009DC00283A
:1022D00075D04528F6D04628F4D047281AD19DE17C
:1022E00018E0632835D0642879D0652812D195E1AB
:1022F000702873D008DC6728F1D069286FD06E2869
:102300000DD06F2806D1B5E073282CD0752875D074
:10231000782874D05A46179990476D1C75E1C4F31C
:102320000250022809D003280DD0D9F80010042843
:102330000DD00D6009F1040967E1D9F80010EA1722
:10234000C1E90052F6E7D9F800100D80F2E70D70F0
:10235000F0E719F8041B8DF8001000208DF801003B
:10236000EA46012003E059F804AB4FF0FF30610763
:102370004FF0000102D40DE008F101018846B94296
:102380000FDA8045F8DB1AF808100029F4D108E0CC
:1023900008F1010188468142FADB1AF80810002989
:1023A000F6D105985B46A0EB080721463846179AF8
:1023B00000F094FA284400EB080507E04DE029E11D
:1023C0000DE01AF8010B5A4617999047B8F1010829
:1023D000F7D25B4621463846179A13E142E00A22BB
:1023E0000092C4F302524FF0000A022A08D059F8B2
:1023F00004CB032A4FEAEC710AD00DE029E02AE071
:1024000009F1070121F00702F2E802C1914609E053
:102410000FFA8CFC4FEAEC71042A03D14FFA8CFCC2
:102420004FEAEC71002907DA0A460021DCF1000CC2
:1024300061EB02012D2202E0220504D52B228DF84A
:102440000420012203E0E20701D02022F7E79046B2
:1024500059E00A2102E010220DE010214FF0000A9D
:1024600000910BE010224FF0000A44F0040408270A
:10247000009203E008224FF0000A0092C4F30252D7
:10248000022A05D059F804CB0021032A08D009E01C
:1024900009F1070121F00702F2E802C1914605E0C7
:1024A0001FFA8CFC042A01D10CF0FF0C4FF000083D
:1024B000220728D5702806D0009B83F0100353EA2A
:1024C0000A0305D00EE040228DF80420012208E026
:1024D0005CEA010206D030228DF804208DF8050058
:1024E00002229046009B83F0080353EA0A030AD1B4
:1024F0005CEA010201D1620705D530228DF8042083
:102500004FF001087F1E582804D034A003900EA875
:1025100002900DE036A0F9E753466046009AFDF7B9
:10252000A3FE84460398825C0298401E02900270CB
:102530005CEA0100F0D1029806A9081A00F1200A0D
:10254000600702D524F4803400E00127574502DDFE
:10255000A7EB0A0000E0002000EB0A0100900598BC
:102560004144401A0590E00306D45B462146179A81
:10257000059800F0B3F90544002706E001A85A4683
:10258000C05D179990476D1C7F1C4745F6DBE00343
:102590000CD55B462146179A059800F09FF9054433
:1025A00004E030205A46179990476D1C0099481E48
:1025B00000900029F5DC08E0029802995A4600785C
:1025C000491C0291179990476D1CBAF10001AAF1BC
:1025D000010AF1DC65E100000928010030313233E5
:1025E000343536373839616263646566000000004F
:1025F0003031323334353637383941424344454639
:102600000000000000F058F90544761C30780028DE
:102610007FF4ECAD19B02846BDE8F08F620700D416
:10262000062709F1070222F0070CFCE80223E14625
:1026300003F000485FEA080C02D00FF2702C0DE0A6
:102640005FEA045C02D50FF2682C07E05FEAC47C05
:1026500002D00FF2602C01E0AFF2700C4FF0FF38A7
:1026600023F00043CDF850C065280CD006DC452887
:1026700009D046281DD047283DD13DE0662818D016
:1026800067287ED138E00021112F01DB112000E006
:10269000781CCDE9000106A90EA8FFF7DDFCDDE9F5
:1026A0000F010E9A03910021009207F1010A049193
:1026B0004DE04FF000400097CDE9011006A90EA8AB
:1026C000FFF7CAFCDDE90F0203920E9B119900226D
:1026D000DDF80CA00093049211B9791C00EB010AFB
:1026E000B7EB0A0004D4C0F1FF3007F1010A0490EF
:1026F000AAEB0700019044E0012F00DA0127002136
:10270000112F01DD112000E03846CDE9000106A9B6
:102710000EA8FFF7A1FCDDE90F010E9A039100213D
:1027200004910092BA4621070CD40399514500DA6E
:102730008A46BAF1010F05DD009AAAF10101515C48
:10274000302908D0B84202DA10F1040F06DA01216C
:10275000CDE9011015E0AAF10101E9E7002805DC47
:10276000049901440491AAEB000102E0411C514587
:1027700000DD8A460499401A401C01904FF0004049
:102780000290200704D40198504501DBCDF8048065
:1027900000208DF84F0002980DF14F07B0F1004F67
:1027A00025D02B200E9002984FF0020800280CDA5A
:1027B000404202902D200E9007E00A210298FDF77A
:1027C0003DFD3031029007F8011DB8F10001A8F17C
:1027D0000108F2DC02980028EFD1791E0E980870EB
:1027E000307800F0200040F0450007F8020D12A8F4
:1027F000C01B00F107081498007800B1012000EB1D
:102800000A01019801EBE07105984144401A401E0D
:102810000590E00306D45B462146179A059800F020
:102820005DF805441498007818B15A4617999047F6
:102830006D1CE00324D55B462146179A059800F0ED
:102840004DF805441CE00498002807DBDDE903018E
:10285000884203DD0098405C179901E01799302009
:102860005A469047049805F10105401C04900198D0
:10287000401E019004D12E205A46179990476D1C96
:10288000BAF10001AAF1010ADDDC05E017F8010B3D
:102890005A46179990476D1CB8F10001A8F101083C
:1028A000F4DC5B462146179A0598ABE62D00000044
:1028B0002B000000200000002DE9F0410446002517
:1028C0001E461746880404D405E039462020B04748
:1028D0006D1C641EF9D52846BDE8F0812DE9F04154
:1028E000044600251E469046C80301D5302700E067
:1028F0002027880404D505E041463846B0476D1CC2
:10290000641EF9D52846BDE8F0810A68531C0B60A7
:102910001070704710B5044621B101224D2101F01D
:102920007FFC03E000224D2101F07AFC2168204663
:102930004A7B2D2101F074FC01224C21204601F03C
:102940006FFC216820464A7B2D2101F069FC20465E
:102950000022BDE810404C2101F062BC00B583B0FC
:10296000FEF750FAFEF7B4FEFEF76EFCFEF782FCAF
:10297000FEF7BAFCFFF7A4FAFEF7C4FFFDF7FCFF71
:1029800003220021012001F0B3FE0B4900234FF484
:10299000007288600320CDE9000108A10B4802F015
:1029A0008DF901281EBF4FF0FF3003B000BD01F0CC
:1029B0000BFE03B0002000BD5C000020417070548D
:1029C00061736B437265617465000000F10B000870
:1029D0002DE9F041194C0F460546E6682068001DB8
:1029E00001F071FC48B92068012190F82C0001FA2F
:1029F00000F0216921EA00002061B5F1FF3F07D115
:102A000037B12068BDE8F041011D0D4801F099BCC7
:102A100020683544B5424560206800F1040104D2C5
:102A2000A06BBDE8F04101F06FBC606B01F06CFC85
:102A3000A06AA84288BFA562BDE8F08168000020B6
:102A40009C0200201A4E1B4CDFF86C90A6F1A007E8
:102A50004FF080586068F0B1206B401C20633068F4
:102A600018B302F09BFA01F079FCF068C568281DE4
:102A700001F029FCA068401EA0606068401E6060F4
:102A800001F07AFC286B01F083FC284601F080FC01
:102A900060680028E0D138680128DBD9C9F80080D7
:102AA000BFF34F8FBFF36F8FD4E702F077FAEFE7F2
:102AB000880200206800002004ED00E02DE9F043CA
:102AC00083B0804602F0C8F9254C0746A0688742CB
:102AD00028BF002036D2E068006800282DD0E068CA
:102AE000C068C5680668281D01F0EDFB696A2846C4
:102AF0008847E86901281CD1A8693044B04206D94A
:102B00002D616860291DE06801F0FEFB11E00020E6
:102B10002168814669B1CDE90006029502F08EF97F
:102B200002284FF0000314D000226946206801F00B
:102B30005DFFE06800680028D1D1D4E90310C4E942
:102B400003010120C8F80000A76003B03846BDE8C3
:102B5000F0834A466946206801F048FFE9E7000033
:102B6000A4000020BF2080F31188BFF34F8FBFF374
:102B70006F8FFEE7DFF854B2954C8CB04FF0805A5F
:102B8000E0680168002907BF012600250026C0680B
:102B900018BF056801F04CFD05A8FFF78FFF074639
:102BA000059800282CD002F0F9F900231A4606A94E
:102BB000206801F0D9FD0028E2D006980028C0F274
:102BC000FB80089F786900281CBF381D01F07BFB43
:102BD00002F042F98046A068804573D2E068006840
:102BE000002870D0E068C068C5680668281D01F03C
:102BF0006AFB696A28468847E869012857D075E06A
:102C0000AEB12069006800280CBF01260026E91B30
:102C10003246206801F000FC02F0C0F90028C4D15F
:102C2000CBF800A0BFF34F8FBFF36F8FBDE7BD425E
:102C3000EDD802F0B3F9E068C068C668301D01F055
:102C400042FBF069012828D1B069366128447060E0
:102C5000B84207D8B069791B81423CBF311D206959
:102C600009D205E0BD4201D9854204D9311DE06891
:102C700001F04AFB11E000202168074669B1CDE967
:102C80000005029602F0DAF802284FF0000308D09F
:102C900000226946206801F0A9FE716A3046884723
:102CA00083E73A466946206801F0A0FEF5E7A86987
:102CB0003044B04208D92D616860291DE06801F0F8
:102CC00023FB13E01BE016E000202168814669B178
:102CD000CDE90206049502F0B1F802284FF0000396
:102CE00019D0002202A9206801F080FEE068006887
:102CF00000287FF477AFD4E90310C4E90301C4F8D6
:102D0000088006980A2857D2DFE800F00B0B0B5614
:102D100043530B0B56434A4602A9206801F066FE56
:102D2000E4E70798B969084407993F61786040452E
:102D300005D8B869A8EB0101814204D233E04145CE
:102D400034D9814232D8796A38468847F8690128EF
:102D500032D102E001F0D8FA2EE00799BA690020DA
:102D60000A442168054639B3CDE90202049702F00E
:102D700065F802284FF0000305D0002202A9206860
:102D800001F034FE18E02A4602A9206801F02EFE68
:102D900012E00798B86140443F617860804505D3F0
:102DA000B869002808D9391D2069D3E7391DE068C2
:102DB000D0E7384601F0ECFA00231A4606A920684D
:102DC00001F0D2FC00287FF4F8AED9E604ED00E073
:102DD000A400002070B5044601F0C0FA94F94550F3
:102DE000002D0DDD606A58B104F1240002F0A4F852
:102DF000002818BF01F0B2FB681E45B2002DF1DCBF
:102E00004FF0FF3684F8456001F0B6FA01F0A6FAFB
:102E100094F94450002D0DDD206958B104F11000E3
:102E200002F08AF8002818BF01F098FB681E45B22E
:102E3000002DF1DC84F84460BDE8704001F09CBADC
:102E40002DE9F05F0646002401F0F2FBDFF828C10F
:102E500000250CF11000DCF8001009BB47494FF4C5
:102E6000205211F0070F06D0C91D444A21F0070176
:102E70008A1AC2F520520A44083AC0E9001522F025
:102E80000702CCF800205560531A1560C1E90023F1
:102E9000CCF808304FF00041CCF80430CCF80C10DE
:102EA000DCF80C703E4261D1002E5FD006F10802C2
:102EB00012F0070F04D002F00701C1F108010A4423
:102EC000002A53D0DCF80460B2429CBF2C4B01684E
:102ED0004CD84868904205D2086800281CBF0B46B1
:102EE0000146F6D1DCF8008041453FD0186800F17A
:102EF0000804086818604868801A102828D98B18B8
:102F000058604A601E4A1068984238BF0246FAD399
:102F1000D2F8049009EB020A9A4503D15B684B444E
:102F200053601346D3F8049009EB030A824518BF97
:102F300018600AD1404508BFC3F8008005D040683A
:102F4000484458601068006818609A4218BF1360BF
:102F50004A68B01ACCF80400DCF80830834288BF15
:102F6000CCF8080042EA0700C1E9005002F016F868
:102F70002046BDE8F09F0000BC000020D8020020E1
:102F8000CC0000204FF0807C40F804CC21F00101FF
:102F900040F8081C034B40F80C3C40F8202C40380B
:102FA00070470000652B000810B50446084B094A1D
:102FB000094900F05BF9204600F0D1FD00212046D0
:102FC00000F0D9FD2046BDE8104000F007B8000031
:102FD00071410008EB3B00086C6F0008016890F835
:102FE0003820406B097C5143C900FDF700B92DE939
:102FF000F041044690F87000984615460E4630B1F0
:10300000012809D002280CD0032810D014E0E16D6B
:1030100020468847284408E0E16D20468847301A5A
:1030200009E0E16D20468847281A85B204E0E16D89
:1030300020468847304486B2A4F8646041460027A1
:10304000A4F86650204600F049FC010003D0204659
:1030500000F03CFA87B23846BDE8F08138B590F808
:103060008C40DDF810C0002C14BF002B38BD012BA4
:103070000DD9BCF1020F03D0BCF1030F04D006E060
:10308000C91A491C89B202E0D21A521C92B21CF031
:10309000010429D0B0F848C08C459CBFB0F84A5014
:1030A000A94228BF38BDB0F84C501344B0F84EC008
:1030B0009BB2934205D2944592BF2A46ACF10103DC
:1030C0009BB2624534BF9D4238BDAA4238BF2A46F2
:1030D000634588BF63469B1A0094D0F830C09BB20A
:1030E000DCF808C0E04738BDB0F84CC094459CBF40
:1030F000B0F84E50AA4228BF38BDB0F848500B4433
:10310000B0F84AC09BB28B4205D28C4592BF29468B
:10311000ACF101039BB2614534BF9D4238BDA94269
:1031200038BF2946634588BF63465B1AD4E7000071
:10313000DFF808C0C0F804C000F032B9314200081E
:1031400030B4B0F84E50B0F84C40DDF808C0AA4298
:1031500011D2644528BF944511D200BFB0F8482071
:10316000B0F84A0081420DD29A4228BF8B4206D263
:1031700030BC01207047A44588BF6245EED830BC02
:1031800000207047934288BF9942F8D9F0E72DE9B3
:10319000F843044690F8387090F8396000680025CC
:1031A0004FF6FF7990F811802168204632460B7C5B
:1031B000616B05FB03FC1FFA8CFC09EACC0C614433
:1031C0000091002100F0B7FC681CC5B2701CC6B2AB
:1031D000BD4238BF4645E7D32046BDE8F84300F07E
:1031E000C4BC10B50446806D884208BF10BD04F110
:1031F0007400A16500F02AFC2046BDE8104000F0F4
:1032000053B800000149C1657047000085340008CB
:1032100070B5044600250498A565E362616384F8EF
:10322000382084F8395084F86D5084F8915084F82F
:103230008D50012184F8921084F893102063016866
:1032400020468847A4F85050A4F854504FF6FF7118
:10325000A4F85210A4F85610216B204649688847FC
:103260002046FFF7CFFF84F8705070BD30B583B0B3
:103270000C46009313460546084A094900F081FCB4
:1032800001A800F0DDFB0146064B00949DF80420E8
:103290002846FFF7BDFF03B030BD0000ED3E00083B
:1032A0005D4000085B390008816D002908BF704748
:1032B00090F9812080F88E2090F9821080F88F108C
:1032C00090F88D30002B08BF7047012B0FD090F97C
:1032D0007EC090F980309C449445A8BF624680F837
:1032E0008E209942C8BF194680F88F10704790F918
:1032F00083309A42D8BF1A4680F88E2090F98420F5
:103300009142C8BF1146EFE738B50446B0F8560001
:103310000090B4F85230B4F85420B4F8501020465D
:10332000FFF70EFF002802BF002084F88C0038BD94
:10333000012084F88C00B4F84810B4F850008142A1
:1033400038BFA4F84800B4F84A10B4F852008142DB
:1033500088BFA4F84A00B4F84C10B4F85400814275
:1033600038BFA4F84C00B4F84E10B4F856008142AF
:1033700088BFA4F84E0038BD38B5C48FDDF810C042
:10338000CDF800C0121BD0F82CC092B2E04738BD77
:1033900008B5DDF808C0CDF800C0FFF7EDFF08BDA7
:1033A0002DE9FF5F99468846044600F03DFF4FF047
:1033B000000A00BF626899F8001020469047A0F507
:1033C0007F41FF395AD0A0F57F4109F10109FE394B
:1033D000F0D0074694F87000029E454630B10128AF
:1033E00009D002280CD0032810D014E0E16D20464B
:1033F0008847304408E0E16D20468847281A09E0F4
:10340000E16D20468847301A86B204E0E16D20461F
:103410008847284485B22846A4F86400A346394664
:103420000025A4F86660204600F058FA010003D099
:10343000584600F04BF885B294F87000002808BF99
:1034400008EB05000ED0012807D0022808BFA8EB22
:10345000050007D0032808D00BE00298284480B26A
:10346000029006E01FFA80F803E00298401B80B249
:1034700002900AEB05001FFA80FA9BE704B0504661
:10348000BDE8F09F0020704710B40468027B2378E9
:1034900023FA02FC5318DBB2082B0DD3641C046022
:1034A0002478C2F1080204FA02F242EA0C0202F0A5
:1034B000FF0CA3F10802D3B2012202FA01F1037357
:1034C000491E01EA0C0110BC084670472DE9F34F74
:1034D00087B000250798079C60300190216604F1B1
:1034E000600684F86C5094F878103046FFF7CCFFF3
:1034F000B07294F879103046FFF7C6FFF07294F876
:103500009210B17300290CBF01200020F0730798BE
:1035100090F96B0002900799019891F87A40214642
:10352000FFF7B2FF0122611E02FA01F1401A07996A
:1035300044B2019891F87B603146FFF7A5FF012264
:10354000711E02FA01F1401A079946B2019891F8EA
:103550007C703946FFF798FF0122791E02FA01F1CB
:10356000401A40B20390019890F90A00002840F3F5
:10357000B1810198019A81880298127C30444042BE
:1035800040B2002A08BF214407D0012A08BF091A07
:1035900003D0022A14BF0144091B019A9180019AA9
:1035A0000199127CC988002A08BF084407D0012A63
:1035B00008BF081903D0022A14BF081B081A80B2DA
:1035C00001990246C8800199DDF804C089889CF8F9
:1035D00010C00B46BCF1000F09D0BCF1010F12D096
:1035E000BCF1020F1FD0BCF1030F2FD03DE0DDF87E
:1035F00004C09CF90AC00CEB0103DDF808C09BB2C3
:1036000002EB0C000DE0DDF808C0A3EB0C01DDF8C7
:1036100004C0491C5B1C9CF90AC089B29BB20CEB2C
:10362000020080B221E0DDF804C09CF90AC0A3EBDF
:103630000C01DDF808C0491CA0EB0C025B1C521CFD
:10364000401C89B29BB292B280B20EE0DDF808C095
:1036500001EB0C03DDF804C09BB29CF90AC0A0EB9F
:103660000C02521C401C92B280B200900798FFF7E7
:1036700067FD002800F02E810198057201984572BF
:1036800001980799036891F87640027B197821FA2E
:1036900002FC1119C9B208290CD35B1C03601B780A
:1036A000C2F1080203FA02F242EA0C02083902F0FF
:1036B000FF0CC9B2012303FA04F20173521E0198F0
:1036C00002EA0C0205920799056891F87740017BA0
:1036D0002A7822FA01FC0A19D2B2082A0DD36D1CED
:1036E00005602D78C1F1080105FA01F141EA0C01EC
:1036F00001F0FF0CA2F10801CAB203FA04F1491E5D
:1037000001EA0C0102730491DDF81C90059C09F19B
:10371000600599F8688099F86970A87AA0EB0800AC
:10372000C6B23346B44238BF2346A88895F810A0E5
:10373000B5F806C04FFA88F279B2BAF1000F08BFA7
:10374000104409D0BAF1010F08BF401A04D0BAF1F1
:10375000020F14BF0844801A80B2BAF1000F08BFEC
:1037600061440CD0BAF1010F08BF0CEB020106D086
:10377000BAF1020F14BFACEB0201ACEB01018AB24B
:10378000697B41B9E97B89F89210297C0091014657
:103790004846FFF763FCB44206D3A01BC4B2781CB2
:1037A0004FF00008C7B2B8E708EB040028726F7248
:1037B00007980690049C90F8688090F869704FF024
:1037C000010900F16005A87AA0EB0800C6B23346F3
:1037D000B44238BF2346AA8895F810C0B5F806B0A1
:1037E0004FFA88F178B2BCF1000F08BF0A4409D043
:1037F000BCF1010F08BF121A04D0BCF1020F14BFB4
:103800000244521A1FFA82FABCF1000F08BF584452
:103810000CD0BCF1010F08BF0BEB010006D0BCF1CE
:10382000020F14BFABEB0100ABEB000082B2B9F1A9
:10383000000F0AD00698A97B80F89210287C00908F
:1038400051460698FFF70AFC0BE0687B48B90698DA
:10385000E97B80F89210287C009051460698FFF78B
:10386000FDFBB44206D3A01BC4B2781C4FF0000885
:10387000C7B2A8E708EB040028726F720198D0F86D
:1038800000C0017B9CF8002022FA01F34A1CD2B24E
:10389000082A0ED30CF1010CC0F800C09CF800C03F
:1038A000C1F108010CFA01F11943CBB2A2F10801F0
:1038B000CAB213F0010F02737FF426AF019890F99A
:1038C000091002988142FFF6DBAE0198817B0798D0
:1038D00080F89210039809B0BDE8F08F10B4826DA3
:1038E0001732FF2912D8612928BFB0F8880004D206
:1038F000412928BFB0F8860000D30244507848B36D
:1039000013788B42F9D110BC901C7047B0F88A0034
:103910004FF6FF7C02441046047843780CEA0424F6
:1039200023449BB21A448478C3780CEA04242344C9
:103930009BB2001D8B42EFD3107853780CEA002025
:10394000184307D088421CBF90780244F4D110BCC1
:10395000D01C704710BC002070472DE9F00102F028
:1039600007054FF0010C0CFA05FC002490F892803A
:103970000CF0FF06059FA446B8F1010F98BF34462E
:1039800000D0B446066822F00702367C06FB02F23D
:10399000466B92B23244114477BB087840EA040087
:1039A00080EA0C0001F8010BA3F101000204120CE3
:1039B00004BFBDE8F0017047481E12F0010F05D0AA
:1039C00010F8011F214381EA0C010170510804BF66
:1039D000BDE8F001704710F8012F224382EA0C0283
:1039E00000F8012B0278224382EA0C020270491E81
:1039F000F1D1BDE8F0017047FFE70A78224382EA7F
:103A00000C020A706A1C12F00705A3F1010293B2BE
:103A10000AD06206140E4FEA4C624FEA126C002B79
:103A2000EBD1BDE8F0017047428F114490F892202D
:103A3000012A98BF0124F2D04FF0010CEFE70000FB
:103A40000821017000487047D82A00200A780270C7
:103A50004A7842708A788270CA78C2700A79027194
:103A60004A7942718A798271CA79C2710A7A02727C
:103A70004A7A42728A7A8272CA7AC2720A7B027364
:103A80004A7B42738A7B8273CA7BC2730A7C02744C
:103A900091F811C04FF6FF738A7C03EA0C2C624444
:103AA000428291F813C00A7D03EA0C2C62448282A0
:103AB0004A7D897D03EA02221144C182704770B4B5
:103AC00090F838204FF6FF74036804EAC20181873A
:103AD000197C04EAC101418790F839C004EACC019D
:103AE000C1875D7C0CEB0206AE4284BFA5EB0C02E5
:103AF00092B204EAC202A0F840101144A0F84210A9
:103B0000998AA0F84410D98AA0F8461070BC704772
:103B1000FFF7D5BF0021A0F84810B0F84410A0F876
:103B20004A10B0F84010A0F84C10B0F84210A0F8BD
:103B30004E10FFF7E9BB00B583B08DF805108DF886
:103B40000620DDF810C08DF80430CDF800C0012249
:103B5000D0F808C06B460F21E04703B000BD00233A
:103B6000D0F808C01A460A2160470023D0F808C0E0
:103B70001A461021604700230A46D0F808C00B21DE
:103B8000604730B44FF0000C029CC0F800C080F8D1
:103B900023C080F826C0C0F818C04FF0FF0C80F892
:103BA00024C000F1080580F828C085E81E0030BC5C
:103BB000AFF300800023D0F808C01A4609216047FF
:103BC0000023D0F810C01A461921604713B501220E
:103BD000D0F810C001AB1721E04702B010BD0023A0
:103BE000D0F810C01A46182160472DE9F041174659
:103BF0000546182978D004DC142966D0172909D085
:103C000005E0192900F0F380202900F0138100203D
:103C1000BDE8F0811E46002F00F00C813478284664
:103C200004F08001FEF776FE04F040012846FEF71E
:103C300071FE04F020012846FEF76CFE04F010012E
:103C40002846FEF767FE04F008012846FEF762FEEC
:103C500004F004012846FEF75DFE04F00201284648
:103C6000FEF758FE04F001012846FEF753FE2C46ED
:103C700001224D21204600F0D3FA20682D21427BFD
:103C8000204600F0CDFA254601224C21204600F0C6
:103C9000C7FA28682D21427B284600F0C1FA01228C
:103CA0004D21204600F0BCFA20682D21427B2046A1
:103CB00000F0B6FA00224C21204600F0B1FA781E3E
:103CC000761C10F0FF07A9D1B4E001224C2100F0CE
:103CD000A7FA01224D21284600F0A2FA29682846B9
:103CE0004A7B2D2180E0FFE795F82500B0B12846FA
:103CF00001224D2100F094FA296828464A7B2D21A3
:103D000000F08EFA28462C4601224C2100F088FA59
:103D1000216820464A7B2D2100F082FA28460122A4
:103D20004D2100F07DFA284600224D2100F078FA5E
:103D3000296828464A7B2D2100F072FA2846002285
:103D40004C2100F06DFA012185F8251095F82440EA
:103D5000284604F08001FEF7DDFD04F0400128460E
:103D6000FEF7D8FD04F020012846FEF7D3FD04F04D
:103D700010012846FEF7CEFD04F008012846FEF7A4
:103D8000C9FD04F004012846FEF7C4FD04F0020159
:103D90002846FEF7BFFD04F001012846FEF7BAFDF4
:103DA00001224D21284600F03BFA28682D21427B54
:103DB000284600F035FA01224C21284600F030FA5E
:103DC00028682D21427B284600F02AFA01224D2145
:103DD000284600F025FA28682D21427B284600F06D
:103DE0001FFA00224C21284600F01AFA22E0002295
:103DF0004D2100F015FA28682D21427B284600F05D
:103E00000FFA01224C21284600F00AFA28682D21D9
:103E1000427B284600F004FA01224D21284600F09A
:103E2000FFF928682D21427B284600F0F9F900208F
:103E300085F825000120BDE8F0810023D0F80CC0F2
:103E40001A461921604700230A46D0F80CC01621F3
:103E5000604700230A46D0F80CC01521604713467E
:103E60000A46D0F80CC017216047000038B50C4650
:103E70004FEA000514F8011B18292AD011DC152976
:103E800018BF16291BD0172918BF38BD20788DF808
:103E900000000122D5F80CC028466B461721E047E8
:103EA0000BE0192915D0FE2918BF38BD22788DF8EE
:103EB00000202921284600F0B3F9641CDAE72278B3
:103EC0008DF80020D5F80CC000232846E047641C7C
:103ED000D0E70023D5F80CC01A462846E047C9E7CA
:103EE0000023D0F80CC01A46182160472DE9F0478E
:103EF000DFF8F48016460446A1F1140298F8000099
:103F00001D464FF00009062A6AD2DFE802F04F038F
:103F1000171C5E6300281CBF2046FFF751FE204699
:103F2000FFF75DFE00212046FFF750FE3146204698
:103F3000FFF74CFE012088F8000048E0314620469B
:103F4000FFF744FE43E000281CBF2046FFF738FE81
:103F5000182E17D918272046FFF741FE402120468A
:103F6000FFF734FED4F810C02B463A4617212046FE
:103F7000E0472046FFF724FEA6F11800C6B2183528
:103F8000182EE7D82046FFF72AFE40212046FFF7EB
:103F90001DFED4F810C02B46324617212046E047BC
:103FA0002046FFF70DFE88F8009010E094F82400FA
:103FB000FF2804BF782084F824002B463246204690
:103FC000D4F810C0BDE8F047604788F800900120A1
:103FD000BDE8F08700281CBF2046FFF7F1FDF4E79D
:103FE0000020BDE8F0870000D400002010B50023B9
:103FF000D0F814C004461A462821E0470023D4F81C
:104000000CC01A4614212046E04701224B212046CD
:1040100000F006F9206829210279204600F000F915
:1040200000224B21204600F0FBF82068292102796C
:10403000204600F0F5F801224B21204600F0F0F870
:104040002068292142792046BDE8104000F0E8B8F8
:104050000160897C80F822107047000070B50C4622
:10406000054600F019F888B9092C0BD00A2C1CBFA2
:10407000002070BD2846FFF7B9FF05492846FFF725
:10408000F5FE03E003492846FFF7E2FF012070BD7B
:104090009E6F0008A07000082DE9F0411E461446EE
:1040A00005460B2936D00D293BD00E2949D00F29C2
:1040B0001CBF0020BDE8F081FFF712FF707995F872
:1040C000221001EBC000C7B240212846FFF7C1FE15
:1040D000102040EA17112846FFF7BBFE07F00F013A
:1040E0002846FFF7B0FEB07940F0B0012846FFF750
:1040F000AAFE30793268C006010E2846FFF7AFFEEF
:10410000601E10F0FF04F4D12846FFF796FE012050
:10411000BDE8F081002A14BF11491249FFF7A6FE3D
:10412000F5E742B11049FFF7A1FE286890F81300A7
:1041300085F82200EBE70D49FFF798FE2868807CA0
:10414000F6E7FFF7CDFE81212846FFF782FE2146E4
:104150002846FFF778FE2846FFF76FFED7E70000F6
:104160007D6F0008786F0008896F0008826F000873
:1041700010B52A4B4D2941D012DC2B291CD006DC6E
:10418000292923D02A2908BF002017D003E02D2990
:1041900020D04C2922D0012180F82710012010BD09
:1041A0000022502918BF512903D0522918BF532982
:1041B000F1D180F82720F1E700BFEFE700BF00F161
:1041C000010080B2B0F5A07FF8D3E7E70120FCF74B
:1041D0003DFEE3E70520FCF769FEDFE7012A07D093
:1041E000002ADBD14FF480711846FDF722F8D5E79D
:1041F0004FF480711846FDF71EF8CFE7012A07D06B
:10420000002ACBD14FF400711846FDF712F8C5E72C
:104210004FF400711846FDF70EF8BFE7000C01409F
:10422000D0F814C000236047002180F826107047A2
:10423000002912BF0A294FF6FF70704790F8262018
:10424000A2B1A2F1010212F0FF0280F82620038C35
:104250004FF6FF7C0CEA831301F03F0143EA0101B2
:10426000018418BF4FF6FE702BD07047FC2905D390
:10427000052280F8262001F001011EE0F82905D36F
:10428000042280F8262001F0030116E0F02905D36E
:10429000032280F8262001F007010EE0E02905D373
:1042A000022280F8262001F00F0106E0C02908D381
:1042B000012280F8262001F01F0101844FF6FE70D4
:1042C000704708467047D0E9013201699A60D0E929
:1042D00001235A604A68824204BF82684A60002211
:1042E00002610868401E0860704700F108014FF045
:1042F000FF32C0E90112C160016100210160704715
:10430000002101617047000010B40B68B3F1FF3F5A
:104310000CBF026900F1080208D000BFD2F804C047
:10432000DCF800409C4298BF6246F7D953684B6066
:1043300099608A60516008610168491C016010BC85
:10434000704742684A6093688B60936859609160D7
:1043500008610168491C016070470000BF2080F3BC
:104360001188BFF34F8FBFF36F8F02480168491C5C
:1043700001607047B800002004490868401E0860CA
:1043800018BF7047002080F311887047B8000020E4
:10439000002808BF704770B51D4EA0F1080550F801
:1043A000041CF068014208BF70BD2A68002A18BFCB
:1043B00070BD21EA0000686000F03AF96868716831
:1043C000144C084470602068A84238BF0446FAD3F1
:1043D00061680A19AA4203D16A68254611446160DE
:1043E00069684A19824218BF28600AD1326890422F
:1043F00008BF2A6005D040680844686020680068EB
:104400002860AC4218BF2560BDE8704000F0C6BD12
:10441000BC000020CC00002070B515460E460446B6
:10442000FFF79CFF94F94400B0F1FF3F4FF000000C
:1044300008BF84F8440094F94510B1F1FF3F08BF6C
:1044400084F84500FFF798FFA06B28B92A4631464B
:1044500004F1240000F098F82046BDE87040FEF713
:10446000B9BC000010B558B10A490A6B521C0A6366
:104470000021FEF7ADFA00F091FD002818BF10BD35
:104480004FF0805004490860BFF34F8FBFF36F8F28
:1044900010BD00006800002004ED00E070B5054686
:1044A000FFF75CFF294C002D08BF2568281DFFF78A
:1044B0000AFF68B9E86A264A00EB800152F8211029
:1044C00031B9012101FA00F0216921EA00002061DF
:1044D000A86A00281CBF05F11800FFF7F4FE606A07
:1044E000401C60622068854207D1291D1948FFF7EA
:1044F00028FF6068401C606014E0A068401EA06057
:10450000286BFFF745FF2846FFF742FF606B006806
:1045100000280FBF4FF0FF30606BC068C06818BF45
:104520004068A062FFF728FF6069002808BF70BDDF
:104530002068854218BF70BD4FF080500649086062
:10454000BFF34F8FBFF36F8F70BD00006800002076
:10455000E80100208802002004ED00E0014901206C
:10456000C861704768000020064A10B512680C4602
:1045700002F11801FFF7C8FE2046BDE810400121F6
:10458000FEF726BA6800002070B5154602460948B5
:104590000C46006800F118011046FFF7D2FE002D0E
:1045A00018BF4FF0FF3429462046BDE87040FEF7A3
:1045B0000FBA00006800002002490A6A0260C96858
:1045C000416070476800002010B582B01348002495
:1045D000CDE900402346802211A1134800F06EFB74
:1045E00001281CBF02B010BD00F0A4FD01281CBFB3
:1045F00002B010BDBF2080F31188BFF34F8FBFF30F
:104600006F8F0A484FF0FF31816201214161C46020
:1046100002B0BDE8104000F037B800009400002060
:1046200049444C4500000000452A0008680000206D
:104630000248016B491C01637047000068000020BC
:104640000F48016B00291EBF0121C1617047002185
:10465000C16101690B4AB1FA81F1C1F11F0101EB9E
:10466000810102EB810101F108034A6852684A6046
:104670009A4204BF52684A60D168016070470000E6
:1046800068000020E80100200B4810B5016841F4E3
:104690007F010160016841F07F4101604FF0E0203F
:1046A0000649416107210161054900200860FBF7C7
:1046B00039FD002010BD000020ED00E03F19010091
:1046C000B800002010B5BF2080F31188BFF34F8FD2
:1046D000BFF36F8F00F0C6FB18B104494FF0805054
:1046E0000860002080F3118810BD000004ED00E098
:1046F0002DE9F04117460D0080460CBF002008FB55
:1047000005F05030FEF79CFB06002AD006F1500061
:104710003446002D0CBF24602060C4E90F85FFF7EC
:104720001DFED4E90F12206801FB0200606000202A
:10473000A0632068491EA06001FB0200E0604FF00A
:10474000FF3084F8440084F8450004F11000FFF7BE
:10475000CCFD04F12400FFF7C8FDFFF70DFE84F83F
:104760004C703046BDE8F0812DE9FF4F002683B044
:104770008B460446B1464FF08057DFF86C82751EB9
:10478000FFF7ECFDD4F838A0BAF1000F2FD0E568A0
:10479000226C584642B1A918E1606368994224BF6F
:1047A0002168E160FBF70AFD069898B1E560606A50
:1047B00050B104F1240000F0BFFB28B1C8F800702C
:1047C000BFF34F8FBFF36F8FFFF7D6FD07B0012008
:1047D000BDE8F08FAAF10100A06320690028F3D0A2
:1047E00004F1100000F0A8FB0028EDD0E6E70598E2
:1047F000002800F0F3801EB96846FFF7DDFE0126B1
:10480000FFF7BAFDFFF714FFFFF7A8FD94F9440086
:10481000B0F1FF3F08BF84F8449094F94500B0F12F
:10482000FF3F08BF84F84590FFF7A6FD05A968463D
:1048300000F01CFAF0B3FFF791FD94F945A0BAF12E
:10484000000F10DD606A70B104F1240000F074FB09
:10485000002818BFFFF782FEAAF101004FFA80FA84
:10486000BAF1000FEEDC84F84550FFF785FDFFF745
:1048700075FD94F944A0BAF1000F10DD206970B104
:1048800004F1100000F058FB002818BFFFF766FE87
:10489000AAF101004FFA80FABAF1000FEEDC84F8B9
:1048A0004450FFF769FD00F079FBFFF757FDA06B5F
:1048B000002800E003E07CD0FFF75EFD60E7FFF733
:1048C0004DFDA06B48B1FFF757FDFFF747FD94F989
:1048D00045A0BAF1000F5CDD4AE0FFF74DFD04F1A1
:1048E00024000599FFF740FEFFF738FD94F945A035
:1048F000BAF1000F10DD606A70B104F1240000F01D
:104900001BFB002818BFFFF729FEAAF101004FFA90
:1049100080FABAF1000FEEDC84F84550FFF72CFD69
:10492000FFF71CFD94F944A0BAF1000F10DD2069D7
:1049300070B104F1100000F0FFFA002818BFFFF773
:104940000DFEAAF101004FFA80FABAF1000FEEDC79
:1049500084F84450FFF710FD00F020FB00287FF49E
:104960000FAFC8F80070BFF34F8FBFF36F8F07E72B
:10497000606A70B104F1240000F0DEFA002818BF6C
:10498000FFF7ECFDAAF101004FFA80FABAF1000F2F
:10499000EEDC84F84550FFF7EFFCFFF7DFFC94F9FD
:1049A00044A0BAF1000F12DD206980B104F11000BB
:1049B00000E013E000F0C0FA002818BFFFF7CEFDBA
:1049C000AAF101004FFA80FABAF1000FECDC84F88A
:1049D0004450FFF7D1FC00F0E1FAD1E6FFF7CCFC40
:1049E00007B00020BDE8F08F04ED00E02DE9FF4F97
:1049F000002783B01E460446BB464FF08058DFF8C0
:104A000068927D1EFFF7AAFCA06BE16B884207D37A
:104A1000022E05D0059800283CD0002F3DD040E064
:104A20000499A56B226C02B37EB1E068FBF7C6FB6C
:104A3000E168206C091AE1602268914202D2616843
:104A4000081AE060022E10D10CE0A068FBF7B6FB5C
:104A5000A168206C0144A1606068814224BF206885
:104A6000A06002E0002D18BF6D1E681CA063606A84
:104A700050B104F1240000F05FFA28B1C9F80080B9
:104A8000BFF34F8FBFF36F8FFFF776FC07B00120A6
:104A9000BDE8F08FFFF770FC50E06846FFF78CFD33
:104AA0000127FFF769FCFFF7C3FDFFF757FC94F9F7
:104AB0004400B0F1FF3F08BF84F844B094F94500CA
:104AC000B0F1FF3F08BF84F845B0FFF755FC05A9DA
:104AD000684600F0CBF8A8B3FFF740FC94F94560B6
:104AE000002E0DDD606A58B104F1240000F024FAB4
:104AF000002818BFFFF732FD701E46B2002EF1DC11
:104B000084F84550FFF738FCFFF728FC94F944601F
:104B1000002E0DDD206958B104F1100000F00CFAF0
:104B2000002818BFFFF71AFD701E46B2002EF1DCF8
:104B300084F84450FFF720FC00F030FA07B0002062
:104B4000BDE8F08FFFE7FFF709FCA06BE16B88423F
:104B50000ED1FFF711FC04F110000599FFF704FDD9
:104B6000FFF7FCFB94F945A0BAF1000F1BDD09E04B
:104B7000FFF702FCFFF7F2FB94F945A0BAF1000F32
:104B80004EDD3CE0606A70B104F1240000F0D4F91D
:104B9000002818BFFFF7E2FCAAF101004FFA80FAE3
:104BA000BAF1000FEEDC84F84550FFF7E5FBFFF7A4
:104BB000D5FB94F944A0BAF1000F10DD206970B163
:104BC00004F1100000F0B8F9002818BFFFF7C6FC88
:104BD000AAF101004FFA80FABAF1000FEEDC84F876
:104BE0004450FFF7C9FB00F0D9F900287FF40AAF61
:104BF000C9F80080BFF34F8FBFF36F8F02E7606A81
:104C000070B104F1240000F097F9002818BFFFF7F5
:104C1000A5FCAAF101004FFA80FABAF1000FEEDC10
:104C200084F84550FFF7A8FBFFF798FB94F944A0E0
:104C3000BAF1000F10DD206970B104F1100000F02E
:104C40007BF9002818BFFFF789FCAAF101004FFA91
:104C500080FABAF1000FEEDC84F84450FFF78CFBC9
:104C600000F09CF9CEE6000004ED00E070B50D46C2
:104C70000446FFF773FB1048C1682A68B2F1FF3F92
:104C800008BF002414D02368D0F820C0634502D0A8
:104C900063688B420BD96368C91A8A4207D9511AD3
:104CA0002960016A2160C0686060002400E001247E
:104CB000FFF762FB204670BD680000202DE9F84F29
:104CC0008346DDE90A6990009A4690460F460090B7
:104CD000FEF7B6F805004ED05420FEF7B1F80400F8
:104CE00046D02563A52228460099FBF779FA6FF094
:104CF0000301206B01EB8801084420F00705002028
:104D000021183A5C81F83420395C00291CBF401C12
:104D10001028F5D3002784F84370052E28BF0426F9
:104D2000201DE662FFF7ECFA04F11800FFF7E8FA3D
:104D30002461C6F105016462A161E76484F85070E2
:104D4000524659462846FEF71DF92060B9F1000F7A
:104D500018BFC9F800402646FFF700FB2F4DA86892
:104D6000401CA86028682E4F48B1686958B330E0ED
:104D70002846FFF70DFB4FF0FF30BDE8F88F2E609F
:104D8000A868012808BF002423D100BF04EB8400D9
:104D900007EB8000FFF7A9FA641C052CF6D3214825
:104DA000FFF7A3FA2048FFF7A0FA2048FFF79DFA83
:104DB0001F48FFF79AFA1F48FFF797FA19486863E8
:104DC0001430A86305E02868F16AC06A884298BF79
:104DD0002E60686A0121401C68627064F06A2A696A
:104DE00081401143296100EB800007EB8000311DF9
:104DF000FFF7A7FAFFF7C0FA686960B12868F16A9F
:104E0000C06A884207D20C494FF080500860BFF357
:104E10004F8FBFF36F8F0120BDE8F88F680000202F
:104E2000E80100204C0200206002002074020020F3
:104E3000880200209C02002004ED00E00548416942
:104E4000002904BF01207047006B00280CBF02201E
:104E500000207047680000200148C06870470000CB
:104E6000680000202DE9F047314D0027286B48B13C
:104E7000A869401CA861E869002818BF01273846C6
:104E8000BDE8F087E868461CEE604FF0FF3912D1AC
:104E9000686BA96B6963A863286A401C2862686B09
:104EA0000068002808BFC5F8289004D0686BC06867
:104EB000C0684068A862A86ADFF87880B04298BFEE
:104EC0004FF0010A0CD8686B006838B1686BC06895
:104ED000C468606886420DD2A86201E0C5F82890D7
:104EE0002868C06A00EB800058F82000012888BFBD
:104EF0000127C0E7201DFFF7E6F9A06A00281CBFC4
:104F000004F11800FFF7DFF9E06A2A690AFA00F1F4
:104F10001143296100EB800008EB8000211DFFF7A1
:104F200010FAE06A2968C96A884228BF0127CAE7DF
:104F300068000020E801002070B5C068C56805F170
:104F40001800FFF7C0F9124C206B012600281CBF87
:104F500005F118010F480AD0FFF7F3F9E86A216854
:104F6000C96A884286BF0120E661002070BD281D05
:104F7000FFF7A9F9E86A226906FA00F111432161F5
:104F8000054900EB800001EB8000291DE4E70000EB
:104F90006800002074020020E80100202DE9F84F8D
:104FA00000200090FFF7DAF95F4C206B401E206371
:104FB000206B00285ED1A06800285BD05B4E4FF0CC
:104FC000FF37A6F18C0930684FF0010800282CD07B
:104FD000F068C56805F11800FFF775F9281DFFF79F
:104FE00072F9E86A226908FA00F11143216100EBC5
:104FF000800009EB8000291DFFF7A3F9E86A21680A
:10500000C96A884228BFC4F81C8030680028DFD1F4
:105010005DB1616B20460968002908BF876204D032
:10502000416BC968C96849688162D4F818A0BAF1AF
:10503000000F14D0206B4FF0000B00B3A069401C90
:10504000A061E069002808BFBBF1000F02D000BFDB
:10505000C4F81C80BAF1010AECD10020A061E0691B
:1050600040B101203249009000070860BFF34F8F24
:10507000BFF36F8FFFF780F90098BDE8F88FE06805
:10508000471CE7600ED0A06A2546B84221D8686B5D
:105090000068D8B1686BC068C6687068874223D260
:1050A000A86216E0606BA16B6163A063206A401C7C
:1050B0002062606B006800281FBF606BC068C0681A
:1050C000406808BF4FF0FF30A062DCE74FF0FF30D0
:1050D000A8622868C06A00EB800059F82000012807
:1050E00088BFE869B4D8ACE7301DFFF7ECF8B06AC8
:1050F00000281CBF06F11800FFF7E5F8F06A2A69DE
:1051000008FA00F11143296100EB800009EB8000EF
:10511000311DFFF716F9F06A2968C96A884228BF6D
:105120004FF0010BB3E7000068000020740200207C
:1051300004ED00E030B583B00025FFF70FF9134C04
:10514000206878B91248FFF7D0F81248FFF7CDF879
:105150000F48E0601430206100220C210520FFF789
:10516000C7FA2060FFF708F9206858B10A491F20E4
:10517000CDE9000100234FF4007208A10948FFF7B0
:105180009DFD054603B0284630BD0000A400002068
:10519000B0020020C4020020A8000020546D72203C
:1051A00053766300752B0008BF0002020304030559
:1051B00004060A00FE07FE07000142029207B32020
:1051C000050062072107394367A80022079B522781
:1051D0005901230D3D42AF4C69A86AA8322500242D
:1051E0000B3D4237AF7AA7B42300250B3D422FAACF
:1051F000EEAA251300260C3D422FA7987295645401
:105200000127051953672808BB42379575012908FE
:10521000BB42279755092A0A2D4627A76AA8760078
:105220002B0A2D4637A3386446112C079B3E4F9519
:10523000002D060D4E67082E079B3E2FAD042F0B49
:105240003D421F6594BB514600300A3D4237A7DA04
:105250004E7504310C3D4237CB94514619C521326D
:105260000C3D426FE58CA2CC190D01330C3D426719
:105270006894B3863A2D00340C3D423FCB54A6A12E
:10528000334A00350B3D42E746C9CC48A705360BEB
:105290003D4257E68C92A9D302370C3D4267689491
:1052A00033CA35CA00380B3D426F659D56D6690139
:1052B000390C3D426F65A95446394A003A0ABB3E53
:1052C0002FAD0CD34A003B09BB3E2FAD0C55093C1A
:1052D0000ABC423FB6514619053D081D4A67683869
:1052E000043E0BBC4227A38C328A6D003F0A3D422C
:1052F0006FE536CA7404400B3D426F65B99295E183
:1053000002410B3D4237A75A8F917500420C3D4236
:1053100067C42AA659C5A100430C3D426F658D3272
:10532000CA28A705440D3D4267C42AA698628A434D
:1053300001450C3D42E746198D94514643460D3DCB
:1053400042E746198D9451461901470C3D426F655D
:105350008D328A3B2D0048093D4227DB63643B497F
:1053600008BB4267C5AE014A0C3D4277679451467F
:105370006594004B0B3D4227CB54EA14AB1C4C0EFA
:105380003D4227A38C32CA28A38C86004D0A3D4299
:1053900027EBB592B6034E0A3D4227EBA992DC3AC1
:1053A0004F093D426F65EFB400500D3D4267A4AC1C
:1053B00087CA28A38C00510A453E6F65AF6AC300B7
:1053C000520B3D4267A4AC872AAB1C530B3D426F86
:1053D000650D37D46901540E3D4267C88C32CA2826
:1053E000A38C220055083D4227FB4E0B560B3D4235
:1053F00027DBA94C31E508570A3D4227BB924A7783
:1054000000580A3D4227EB5457B50E590C3D422730
:10541000EB5467945146115A0A3D42676894BBD1D8
:10542000105B08BB4267C4CE015C0D3D4227A30C54
:1054300033CC30C38C025D08BB4267768E005E07BA
:105440001D5237A73A5F060D3E67086006125B27BC
:1054500006610A2D426FC334741A01620C3D422763
:10546000A38C92A9A75200630A2D426F658D725AD0
:1054700000640B3D421F6594CC2D950A650A2D42B0
:105480006FE531325C00660C3D42575679C48C3270
:10549000CA00670C3D3A6F689D46463A2D00680B7E
:1054A0003D4227A38C92A9ED006908BB422F23D966
:1054B0001A6A0BCC3A3F635D4B9914006B0C3D426A
:1054C00027A38CB24CB3CA016C07BB4247F61A6DD6
:1054D0000A2D4247B5545249076E082D422799DAE2
:1054E0000E6F092D426F653B2D00700C3D3A2799D8
:1054F0007A2A95514600710B3D3ACFDC52A98C3285
:105500000A720B2D4227991A65941100730A2D42D5
:105510006F65B8E15000740D3D422FA33C624619FF
:10552000C5A80075082D42273B950A760A2D42270B
:10553000EB54A61C0177092D42275B4975017809B8
:105540002D4227A7BAAA03790B3D3A279B4A65A4A7
:10555000D3027A082D4267E8F6107B0BBC425765F0
:1055600094348A19097C063943E7087D0CBC42470C
:10557000A39891CA2849007E091D522FAA2413001E
:10558000A005006207A1073943270D01A20C3D3E8B
:10559000370F15534C79C408A30B3D425756796712
:1055A000149502A40A2D4227A799E2CA01A50D4528
:1055B0003E27EB54C72133CA2802A6063943670D9C
:1055C000A70B453E6F65343B374A0BA8068B5E2719
:1055D00005A90C3D426F6595A64A3A2D00AA0AB46A
:1055E000466F44A56A3402AB0B2E42B78A29E6986F
:1055F0006300AC07944A67E400AD068C4E6704AEC6
:105600000B3D426FE591E6D46901AF060D5E670878
:10561000B0069B52AF0BB10B354237A338644671CD
:1056200008B208AC4E4FC5E608B30AAC4E67A3A457
:10563000D14800B406125B4F01B50A353E27DB5353
:10564000A98C00B60E3D426F8C34525231C51453B2
:1056500000B705094F27B806123B4F01B907AB4EFB
:105660002FC96ABA0AB4464F4599341C01BB0C2EA7
:105670004227E698638A294600BC104E3E2F230D30
:1056800033CC6866A4531C1906BD104E3E2F230D63
:1056900033CC686554C38C321ABE0E4D3E47C39C52
:1056A000619459A634320ABF0A3D4237D319E5D670
:1056B00002C00C45422FC3BCB21E23EB00C10B45F8
:1056C00042BF5E598F917500C20C454237A7B8B2F0
:1056D0001E23EB00C30C45422F2AB9B21E23EB0058
:1056E000C40B4542AFA656D663641DC50C45423770
:1056F000A7B8B21E23EB00C60B3E4277A4B23946D0
:105700006C0EC70D4D3A6F658D32CA28A75D03C870
:105710000E45422F8F8D321A29A38C8600C90E4563
:10572000423F8D8D321A29A38C8600CA0E4542371E
:105730008E8D321A29A38C8600CB0E4542AF1A1BE0
:1057400065345246190D01CC09C34227A7155B03E6
:10575000CD09C34237A5155B03CE09C342AF1A2951
:10576000B606CF09C34227E5155B03D00D3D42675E
:10577000C42A8E54A6381400D10B454237754F9574
:10578000E4D601D20B45422FC3BCB23B2D00D30A55
:105790004542BF5ED99D1600D40B454237A7B8B22B
:1057A0003B2D00D50A454237355776A705D60A4521
:1057B00042AFA65676A705D7092D4227A7BAAA0356
:1057C000D80B3D426FC52BCD991600D90A45422F03
:1057D000C3DA3B2D00DA094542BFCCDE6901DB0BA1
:1057E000454237A78CB33B2D00DC0A4542AFC6D9F2
:1057F0003B2D00DD0C4542BFCC3AD519651401DEC6
:105800000E3D4227A391F2501965941100DF0B3D24
:10581000426F6599CA2A2B05E00C45422FC34C6E96
:1058200098864E23E10B4542BF26374C43A711E231
:105830000C454237A74C6D98864E23E30C45423702
:10584000B5A90DD3D06904E40B3D42AFA6364C4355
:10585000A711E50C454237A79C374C43A711E60B2F
:105860002E426F64548D998700E70B3D3A6F658D2A
:1058700072DA3500E80C45422FC34CAE3C46860B2D
:10588000E90B4542BF26571E23C305EA0C454237A4
:10589000A74CAD3C46860BEB0B3D42AFA6561E23F4
:1058A000C305EC09C3422767245B03ED08C342AF7D
:1058B00086B235EE08C342AF2D5B03EF08BB42272B
:1058C00065D91AF00B3D424743B9B29D1600F10A63
:1058D000454237B57132B51DF20B45422FC34CAE70
:1058E0006CA705F30A4542BF2657B6D302F40B4511
:1058F0004237A74CAD6CA705F50B454237B5A995C6
:10590000EDB400F60A3D42AFA656B6D302F7092D14
:10591000463753435311F80A2D426FC895E650009D
:10592000F90B45422FC34C65A75201FA0A4542BF05
:10593000A6B253A900FB0B454237A78CB353A9006D
:10594000FC0A3D42AFC6D9A95400FD0C4D3ABFCC6C
:10595000A65219E9B400FE0D453A27A391B23D5471
:10596000461901FF0D4D3AAFC6D9542A239D1600A2
:1059700000000004FFFF0000DF000404050504042C
:1059800006101000001000100000160332125F40D5
:1059900016D0A1C2A6B984A1040A6AD346A0208168
:1059A000A1844BA6014116CFA5C2A5B52441450847
:1059B0006DD24484502141454BA50142126DE9C28C
:1059C000620C51A0A2244BD2D02051210043136D70
:1059D000E5C2650C51A120040B92A4D02051910086
:1059E0004413D0A1C2F0817888B887E8C103F110D0
:1059F0007102004515D0A1C2F081784818B187EC3A
:105A0000C103F190306204004613D0A1C2F0817846
:105A1000C818B187E4C103F190316247231022C254
:105A200065F458185383860829234484B98327CB07
:105A3000922D32989A33444C0D2918461400480F81
:105A4000EA69C22450FE910A34A6C80902491F100F
:105A500022C26550152132858A142A618823C445E3
:105A60000F922046A4509922A5149A024A2010228F
:105A7000C26550550933458E903941682D61C26524
:105A80000DA12073A4C89912A6149A024B1F1022CC
:105A9000C26550958932478A9C2181C86C616A171A
:105AA000913843E4481913A5149A024C1F1022C2DE
:105AB0006550559132858A102341F06861441C99E4
:105AC0002854A4501942A4149A024D124F25C3140D
:105AD0005AF058A20F5E101E2D3C28004E124F2186
